:040000006DEF33F07D
:10665600F401D58ED58CD59AD598D596D550F80B0C
:106666000609D56EF28A120001500302F3CF05F037
:10667600F4CF06F001500402F3500626025003023E
:10668600F350062605C001F006C002F01200000E07
:106696002C1A000E2D1A000E2E1A800E2F1A28C044
:1066A60001F029C002F02AC003F02BC004F02CC070
:1066B60005F02DC006F02EC007F02FC008F0A0ECA4
:1066C6003DF001C028F002C029F003C02AF004C042
:1066D6002BF01200660EF66E6E0EF76E000EF86E5A
:1066E60005EEF0F012EE10F00900F5CFEEFFE550E2
:1066F600E150FAE1E250F8E1560EF66E660EF76EDC
:10670600000EF86E0900F5CF5BF00900F5CF5CF0DE
:1067160000EE47F0140EEE6AE806FDE1000EF86E94
:106726000001EBEF33F0000E07140F6E000E081495
:10673600106E800E0914116E7F0E0A14126E0F5021
:10674600101011101210D8A4ABEF33F0ADEF33F0E8
:10675600B5EF33F0000E076E000E086E000E096EE0
:10676600000E0A6E000E0B140F6E000E0C14106E47
:10677600800E0D14116E7F0E0E14126E0F50101037
:1067860011101210D8A4CAEF33F0CCEF33F0D4EFC7
:1067960033F0000E0B6E000E0C6E000E0D6E000E2A
:1067A6000E6E0B5007180FE10C5008180CE10D5037
:1067B600091809E10E500A18D8B4E4EF33F0E6EFF1
:1067C60033F0E9EF33F0D890EAEF33F0D8801200D7
:1067D6000F0EC16E100E926E93682CEC33F081A4EE
:1067E600F7EF33F0F9EF33F002EF34F081B4FEEF58
:1067F60033F000EF34F0F9EF33F0554A562A56BE1F
:106806000EEF34F0565009E1030E555CD8A00EEF9A
:1068160034F010EF34F048EF34F0000E566E000EF0
:10682600556EF2EF33F081A21BEF34F01DEF34F01A
:1068360062EF34F081B222EF34F024EF34F01DEF32
:1068460034F03BEC38F0F2EF33F081A22DEF34F068
:106856002FEF34F062EF34F081B234EF34F036EFDC
:1068660034F02FEF34F024EF34F081A23DEF34F012
:106876003FEF34F062EF34F081B244EF34F046EF8C
:1068860034F03FEF34F024EF34F055C045F056C0F5
:1068960046F04650000AD8B453EF34F0F2EF33F026
:1068A6004550000AD8B416EF34F0010AD8B428EFE0
:1068B60034F0030AD8B438EF34F0F2EF33F0F2EFE5
:1068C60033F000EF00F02A342B34316E3150D8A467
:1068D6006FEF34F071EF34F07BEF34F0000E286E7A
:1068E600000E296E000E2A6E000E2B6EE8EF34F0B5
:1068F60028C02CF029C02DF02AC02EF02BC02FF076
:10690600200E8BEF34F0D8902F322E322D322C32CF
:10691600E82E86EF34F02C50306E2A8EFF0E2816A5
:10692600FF0E2916FF0E2A16000E2B16960E315E46
:1069360031BEA2EF34F0A0EF34F0B8EF34F03150AE
:10694600800A970FD8B0AAEF34F0ACEF34F0AEEF70
:1069560034F071EF34F0D8902B322A3229322832B3
:10696600313EAEEF34F0D0EF34F01F0E3164BEEF9F
:1069760034F0C0EF34F0C8EF34F071EF34F0D89053
:10698600283629362A362B3631063150D8A4CEEF92
:1069960034F0D0EF34F0C2EF34F03050D8B4D6EF44
:1069A60034F0D8EF34F0E0EF34F02B1E2A1E291E07
:1069B600286C000E29222A222B2228C028F029C062
:1069C60029F02AC02AF02BC02BF0120034C013F095
:1069D60035C014F036C015F037C016F032C001F0DD
:1069E60033C002F0000E02BEFF0E036E046E010EEF
:1069F60059EC36F001C00FF002C010F003C011F0E0
:106A060004C012F0BEEC39F00FC028F010C029F017
:106A160011C02AF012C02BF066EC34F028C032F018
:106A260029C033F0000E136E000E146E000E156EA4
:106A3600400E166E34C00FF035C010F036C011F09F
:106A460037C012F0BEEC39F00FC039F010C03AF082
:106A560011C03BF012C03CF0000E286E000E296EED
:106A66007F0E2A6E430E2B6E170E136EB70E146E24
:106A7600D10E156E3C0E166E39C00FF03AC010F0EE
:106A86003BC011F03CC012F0BEEC39F00FC02CF048
:106A960010C02DF011C02EF012C02FF04AEC33F0CA
:106AA60028C034F029C035F02AC036F02BC037F0A4
:106AB600000E526E000E516E91EF35F0809034C08C
:106AC60028F035C029F036C02AF037C02BF066EC26
:106AD60034F028C0D6FF29C0D7FFF2A475EF35F0F1
:106AE60077EF35F070EF35F0F294809034C028F0EF
:106AF60035C029F036C02AF037C02BF066EC34F0EA
:106B060028C0D6FF29C0D7FFF2A48CEF35F08EEF50
:106B160035F087EF35F0F294514A522A3250515CE3
:106B26005250800A386E3350800A3858D8A09EEFEB
:106B360035F0A0EF35F061EF35F0120034C013F0F8
:106B460035C014F036C015F037C016F032C001F06B
:106B560033C002F0000E02BEFF0E036E046E010E7D
:106B660059EC36F001C00FF002C010F003C011F06E
:106B760004C012F0BEEC39F00FC028F010C029F0A6
:106B860011C02AF012C02BF066EC34F028C03DF09C
:106B960029C03EF0000E136E000E146E000E156E28
:106BA600400E166E34C00FF035C010F036C011F02E
:106BB60037C012F0BEEC39F00FC039F010C03AF011
:106BC60011C03BF012C03CF0000E286E000E296E7C
:106BD6007F0E2A6E430E2B6E170E136EB70E146EB3
:106BE600D10E156E3C0E166E39C00FF03AC010F07D
:106BF6003BC011F03CC012F0BEEC39F00FC02CF0D7
:106C060010C02DF011C02EF012C02FF04AEC33F058
:106C160028C034F029C035F02AC036F02BC037F032
:106C2600000E526E000E516E49EF36F0808034C071
:106C360028F035C029F036C02AF037C02BF066ECB4
:106C460034F028C0D6FF29C0D7FFF2A42DEF36F0C6
:106C56002FEF36F028EF36F0F294809034C028F00B
:106C660035C029F036C02AF037C02BF066EC34F078
:106C760028C0D6FF29C0D7FFF2A444EF36F046EF6E
:106C860036F03FEF36F0F294514A522A3D50515CAD
:106C96005250800A386E3E50800A3858D8A056EFB7
:106CA60036F058EF36F019EF36F01200096E09503B
:106CB600D8B460EF36F062EF36F084EF36F004BEFB
:106CC60069EF36F067EF36F084EF36F001C005F075
:106CD60002C006F003C007F004C008F0051E061E39
:106CE600071E081E052A000E06220722082205C0D6
:106CF6000BF006C00CF007C00DF008C00EF08CEFCC
:106D060036F001C00BF002C00CF003C00DF004C059
:106D16000EF00150021003100410D8A495EF36F0BF
:106D260097EF36F0A1EF36F0000E016E000E026E00
:106D3600000E036E000E046E32EF37F0960E0A6EEA
:106D4600ABEF36F00A2AD8900E320D320C320B32E7
:106D5600000E0B14056E000E0C14066E000E0D14BC
:106D6600076EFE0E0E14086E05500610071008106A
:106D7600D8A4C0EF36F0C2EF36F0A5EF36F0D0EF6C
:106D860036F00A2A010E0B26000E0C220D220E22C8
:106D9600D8900E320D320C320B32000E0B14056EEB
:106DA600000E0C14066E000E0D14076EFF0E0E1468
:106DB600086E0550061007100810D8A4E5EF36F047
:106DC600E7EF36F0C4EF36F0EFEF36F00A06D8906C
:106DD6000B360C360D360E360DBEF4EF36F0F6EFEA
:106DE60036F0FEEF36F0020E0A60FCEF36F0FEEFEC
:106DF60036F0E9EF36F00AB003EF37F005EF37F07B
:106E060006EF37F00D9ED8900A320AC005F0066AE2
:106E1600076A086A05C008F0076A066A056A055027
:106E26000B1206500C1207500D1208500E12095084
:106E3600D8B420EF37F022EF37F02AEF37F004BE50
:106E460029EF37F027EF37F02AEF37F00E8E0BC019
:106E560001F00CC002F00DC003F00EC004F01200E9
:106E66000000803F0E2D42400000803F0000803F22
:106E76000E2D42400000803F0000803F0E2D424014
:106E86000000803F0000403FE17A74400000803FF0
:106E96000000803E333323400000803F0000803FE7
:106EA6000E2D42400000803F0000403FE17A7440D2
:106EB6000000803F0000803E964323400000803F54
:106EC600000000400E2D42400000803F0000803F41
:106ED600C1CA01400000803F0000803FC1CA014096
:106EE6000000803F0000803FC1CA01400000803F93
:106EF6000000403FA69BF43F0000803F0000803E1C
:106F0600964323400000803F0000803F3D0A6740D3
:106F16000000803F0000403FE17A74400000803F5F
:106F26000000803E964323400000803F0000004062
:106F36000E2D42400000803F0000803F0E2DC23FD4
:106F46000000803F0000403F0E2D42400000803F81
:106F56000000803E0E2D42400000803F0000803F32
:106F66000E2DC23F0000803F0000403F2DB2CD3FB6
:106F76000000803F0000803EE7FBD93F0000803FD5
:106F86000000803E79E9E63F0000803F0000803E39
:106F9600A69BF43F0000803F9A99193F79E9E63FA6
:106FA6000000803FCDCC4C3E0000803F000000003A
:106FB6009A99193F643B37400000803F0000803FAC
:106FC600AE4709400000803F0000403FD5781140A1
:106FD6000000803F0000803EAC1C1A400000803F4D
:106FE6000000803E964323400000803F0000803E24
:106FF600F4FD2C400000803F9A99193F96432340A8
:107006000000803FCDCC4C3E0000803F00000000D9
:107016009A99193FA69B74400000803F0000803F6C
:1070260079E966400000803F0000403FA69B74401F
:107036000000803F0000803E964323400000803FD2
:107046000000803F0E2D42400000803F0000403F80
:10705600A69B74400000803F0000803E964323407C
:107066000000803F0000A0400E2D42400000803FFF
:10707600000E5A6E000E596E81A244EF38F046EFAC
:1070860038F051EF38F081B24BEF38F04DEF38F071
:1070960046EF38F0000E5A6E2D0E596E81A056EF4F
:1070A60038F058EF38F061EF38F081B05DEF38F026
:1070B6005FEF38F058EF38F0574A582A58BE6DEF50
:1070C60038F0585009E1030E575CD8A06DEF38F040
:1070D6006FEF38F087EF38F0000E586E000E576EDF
:1070E600A1EF38F0000E5C6EFA0E5B6EA1EF38F081
:1070F600010E5C6EF40E5B6EA1EF38F0020E5C6E54
:10710600EE0E5B6EA1EF38F057C03FF058C040F06E
:107116004050000AD8B492EF38F0A1EF38F03F5053
:10712600000AD8B475EF38F0010AD8B47BEF38F00E
:10713600030AD8B481EF38F0A1EF38F059C001F056
:107146005AC002F0000E046E0C0E036E37EC33F0DC
:10715600F80E0124D96E050E0220DA6EDECF07F096
:10716600DECF08F0DECF09F0DECF0AF0000E0B6EA0
:10717600000E0C6E800E0D6E3F0E0E6E96EC33F00A
:10718600D8A0C8EF38F0CAEF38F026EF39F0000E75
:10719600046E0C0E036E59C001F05AC002F037ECB3
:1071A60033F0F00E0124D96E050E0220DA6EDECF22
:1071B60013F0DECF14F0DECF15F0DECF16F05BC095
:1071C60001F05CC002F0000E02BEFF0E036E046EFC
:1071D600010E59EC36F001C00FF002C010F003C0EA
:1071E60011F004C012F08BEC3BF00FC028F010C079
:1071F60029F011C02AF012C02BF066EC34F028C03A
:1072060041F029C042F041C032F042C033F059C0CB
:1072160001F05AC002F0000E046E0C0E036E37EC3D
:1072260033F0F40E0124D96E050E0220DA6EDECF9D
:1072360034F0DECF35F0DECF36F0DECF37F0A1EC1E
:1072460035F0A9EF39F059C001F05AC002F0000E2E
:10725600046E0C0E036E37EC33F0F80E0124D96E73
:10726600050E0220DA6EDECF07F0DECF08F0DECFA5
:1072760009F0DECF0AF0000E0B6E000E0C6E000E4B
:107286000D6E000E0E6E96EC33F0D8A04DEF39F071
:107296004FEF39F0A9EF39F0000E046E0C0E036EB5
:1072A60059C001F05AC002F037EC33F0F00E012459
:1072B600D96E050E0220DA6EDECF13F0DECF14F0A3
:1072C600DECF15F0DECF16F05BC001F05CC002F039
:1072D600000E02BEFF0E036E046E010E59EC36F070
:1072E60001C00FF002C010F003C011F004C012F08C
:1072F6008BEC3BF00FC028F010C029F011C02AF02B
:1073060012C02BF066EC34F028C043F029C044F0DC
:1073160043C032F044C033F059C001F05AC002F005
:10732600000E046E0C0E036E37EC33F0F40E0124DF
:10733600D96E050E0220DA6EDECF34F0DECF35F0E0
:10734600DECF36F0DECF37F0E9EC34F0594A5A2A70
:107356005ABEB7EF39F05A5009E12C0E595CD8A045
:10736600B7EF39F0B9EF39F03FEF38F0000E566E4F
:10737600000E556E12001250800B1F6E1250122412
:10738600266E11AEC9EF39F0CBEF39F0CCEF39F0FC
:1073960026802650D8B4D2EF39F0D4EF39F0E9EF91
:1073A60039F02628D8A4DAEF39F0DCEF39F0E4EF2B
:1073B60039F0000E0F6E000E106E000E116E000EEC
:1073C600126E118E000E126EF1EF39F0000E0F6E76
:1073D600000E106E000E116E000E126E1650800B0F
:1073E6001F1A16501624276E15AEFCEF39F0FEEF65
:1073F60039F0FFEF39F027802750D8B405EF3AF07F
:1074060007EF3AF01CEF3AF02728D8A40DEF3AF030
:107416000FEF3AF017EF3AF0000E136E000E146EEF
:10742600000E156E000E166E158E000E166E24EFEB
:107436003AF0000E136E000E146E000E156E000E5E
:10744600166E1350141015101610D8A42DEF3AF01E
:107456002FEF3AF047EF3AF0000E0F6E000E106E67
:10746600000E116E000E126E800E11127F0E121299
:107476001F5012120FC00FF010C010F011C011F003
:1074860012C012F08AEF3BF02650D8A44DEF3AF026
:107496004FEF3AF059EF3AF0000E0F6E000E106EF5
:1074A600000E116E000E126E8AEF3BF0275026C0BA
:1074B60017F0186A175E000E185A7F0E1724206EF2
:1074C600000E1820216E0FC01BF010C01CF011C05A
:1074D6001DF012C01EF0000E0F6E000E106E000E94
:1074E600116E000E126E000E226E000E236E000E3E
:1074F600246E000E256E000E276EBAEF3AF0275066
:10750600D8B488EF3AF08AEF3AF0A1EF3AF0D89083
:107516001B361C361D361E36D8900F3610361136E1
:10752600123625AE99EF3AF09BEF3AF09CEF3AF01F
:107536000F80D890223623362436253613501B5C0E
:1075460014501C5815501D5816501E58D8A0AEEF92
:107556003AF0B0EF3AF0B9EF3AF0258C13501B5ED3
:1075660014501C5A15501D5A16501E5A272A190E09
:107576002764C0EF3AF0C2EF3AF082EF3AF01B50C0
:107586001C101D101E10D8B4CBEF3AF0CDEF3AF018
:10759600E5EF3AF02280E5EF3AF0D8900F36103654
:1075A6001136123625AEDAEF3AF0DCEF3AF0DDEFBF
:1075B6003AF00F80D8902236233624362536200618
:1075C600D8A0210611AEEAEF3AF0ECEF3AF0D0EF90
:1075D6003AF0000E276E25AEF3EF3AF0F5EF3AF0EB
:1075E60019EF3BF0FF0E2214176EFF0E2314186ED0
:1075F600FF0E2414196E7F0E25141A6E17501810DC
:1076060019101A10D8B40AEF3BF00CEF3BF010EF4C
:107616003BF0010E276E19EF3BF00FA015EF3BF084
:1076260017EF3BF019EF3BF00CEF3BF02750D8B4C7
:107636001FEF3BF021EF3BF045EF3BF0010E0F262D
:10764600000E10221122122212A02CEF3BF02EEF78
:107656003BF045EF3BF00FC017F010C018F011C01B
:1076660019F012C01AF01A341A32193218321732B7
:1076760017C00FF018C010F019C011F01AC012F0A0
:10768600204A212A21BE50EF3BF0215008E1202854
:10769600D8A050EF3BF052EF3BF05DEF3BF0000E11
:1076A600216E2068000E0F6E000E106E000E116E19
:1076B600000E126E21BE6AEF3BF0215006E1200457
:1076C600D8B068EF3BF06AEF3BF078EF3BF0000E86
:1076D600216E000E206E000E0F6E000E106E000E54
:1076E600116E000E126E000E1F6E20C026F026A030
:1076F6007FEF3BF081EF3BF084EF3BF0118E85EF9F
:107706003BF0119ED8902630126E3BEF3AF01200F5
:107716001250800B1B6E12501224216E11AE96EF82
:107726003BF098EF3BF099EF3BF021802150D8B425
:107736009FEF3BF0A1EF3BF0B4EF3BF02128D8A43C
:10774600A7EF3BF0A9EF3BF0B1EF3BF0000E0F6E59
:10775600000E106E000E116E000E126E118EBCEF32
:107766003BF0000E0F6E000E106E000E116E000E36
:10777600126E1650800B1B1A16501624206E15AE6C
:10778600C7EF3BF0C9EF3BF0CAEF3BF0208020503B
:10779600D8B4D0EF3BF0D2EF3BF0E5EF3BF020283A
:1077A600D8A4D8EF3BF0DAEF3BF0E2EF3BF0000E67
:1077B600136E000E146E000E156E000E166E158EEC
:1077C600EDEF3BF0000E136E000E146E000E156EFC
:1077D600000E166E2050D8B4F3EF3BF0F5EF3BF0F9
:1077E600FDEF3BF02150D8A4FBEF3BF0FDEF3BF063
:1077F60007EF3CF0000E0F6E000E106E000E116EBD
:10780600000E126E9FEF3DF015500F02F3CF26F0DB
:10781600F4CF27F026501C6E1D6A1E6A1F6A275079
:10782600226E236A246A256A14501002F3CF26F0CA
:10783600F4CF27F026501C26000E1D221E221F22E2
:1078460027502226000E232224222522135011021D
:10785600F3CF26F0F4CF27F026501C26000E1D226B
:107866001E221F2227502226000E232224222522F2
:107876001EC01FF01DC01EF01CC01DF01C6A135058
:107886001002F3CF26F0F4CF27F026501C262750FF
:107896001D22000E1E22000E1F2214500F02F3CFCF
:1078A60026F0F4CF27F026501C2627501D22000E66
:1078B6001E22000E1F221EC01FF01DC01EF01CC07F
:1078C6001DF01C6A13500F02F3CF26F0F4CF27F0F9
:1078D60026501C2627501D22000E1E22000E1F2297
:1078E60015501002F3CF26F0F4CF27F026502226AB
:1078F60027502322000E2422000E252214501102A6
:10790600F3CF26F0F4CF27F0265022262750232245
:10791600000E2422000E252215501102F3CF26F068
:10792600F4CF27F02650176E2750186E196A1A6A78
:1079360019C01AF018C019F017C018F0176A1750B6
:10794600222618502322195024221A5025221CC000
:1079560017F01DC018F01EC019F01FC01AF0190E3E
:10796600BAEF3CF0D8901A32193218321732E82E94
:10797600B5EF3CF017502226185023221950242226
:107986001A5025221EC01FF01DC01EF01CC01DF07F
:107996001C6A205021C017F0186A1726000E1822FC
:1079A600820E1724266EFF0E1820276EF0EF3CF08D
:1079B600D89022362336243625361FAEE5EF3CF026
:1079C600E7EF3CF0E8EF3CF02280D8901C361D36FD
:1079D6001E361F362606D8A0270624AEF5EF3CF045
:1079E600F7EF3CF0DBEF3CF0000E206E1FAEFEEF33
:1079F6003CF000EF3DF024EF3DF0FF0E1C14176E37
:107A0600FF0E1D14186EFF0E1E14196E7F0E1F1426
:107A16001A6E1750181019101A10D8B415EF3DF039
:107A260017EF3DF01BEF3DF0010E206E24EF3DF009
:107A360022A020EF3DF022EF3DF024EF3DF017EFBE
:107A46003DF02050D8B42AEF3DF02CEF3DF050EF3A
:107A56003DF0010E2226000E23222422252225A0F7
:107A660037EF3DF039EF3DF050EF3DF022C017F013
:107A760023C018F024C019F025C01AF01A341A329F
:107A860019321832173217C022F018C023F019C065
:107A960024F01AC025F0264A272A27BE5BEF3DF0C0
:107AA600275008E12628D8A05BEF3DF05DEF3DF0BA
:107AB60067EF3DF0000E226E000E236E800E246EE0
:107AC6007F0E256E95EF3DF027BE74EF3DF02750F3
:107AD60006E12604D8B072EF3DF074EF3DF080EF7A
:107AE6003DF0000E226E000E236E000E246E000E78
:107AF600256E000E1B6E95EF3DF026C021F0FF0EA1
:107B06002216FF0E23167F0E2416000E251621A020
:107B16008FEF3DF091EF3DF092EF3DF0248ED8903F
:107B26002130256E1B50251222C00FF023C010F005
:107B360024C011F025C012F012000450800B0D6E07
:107B4600045004240F6E03AEABEF3DF0ADEF3DF0F5
:107B5600AEEF3DF00F800F50D8B4B4EF3DF0B6EF66
:107B66003DF0CBEF3DF00F28D8A4BCEF3DF0BEEFC3
:107B76003DF0C6EF3DF0000E016E000E026E000EE7
:107B8600036E000E046E038E000E046ED3EF3DF0FE
:107B9600000E016E000E026E000E036E000E046EE5
:107BA6000850800B0E6E0D500E18D8B4DDEF3DF068
:107BB600DFEF3DF0E0EF3DF00D8C085008240E6E2F
:107BC60007AEE8EF3DF0EAEF3DF0EBEF3DF00E805B
:107BD6000E50D8B4F1EF3DF0F3EF3DF008EF3EF074
:107BE6000E28D8A4F9EF3DF0FBEF3DF003EF3EF091
:107BF600000E056E000E066E000E076E000E086E75
:107C0600078E000E086E10EF3EF0000E056E000E99
:107C1600066E000E076E000E086E0F500E5CD8B092
:107C260017EF3EF019EF3EF040EF3EF00DAC1EEFC1
:107C36003EF020EF3EF022EF3EF0800E0D1A0FC010
:107C460010F00EC00FF010C00EF001C010F005C00D
:107C560001F010C005F002C010F006C002F010C01E
:107C660006F003C010F007C003F010C007F004C010
:107C760010F008C004F010C008F0000E106E0F508F
:107C86000EC009F00A6A095E000E0A5A0ABE55EFCE
:107C96003EF00A5009E11A0E095CD8A055EF3EF0F5
:107CA60057EF3EF08EEF3EF0015002100310041025
:107CB600D8A460EF3EF063EF3EF0010E64EF3EF0B5
:107CC600000E106E000E016E000E026E000E036EA8
:107CD600000E046E0EC00FF097EF3EF010A076EF88
:107CE6003EF078EF3EF07EEF3EF0D890103001097E
:107CF600106E80EF3EF0D890103201A085EF3EF076
:107D060087EF3EF088EF3EF0108E043404320332E3
:107D1600023201320F2A0E500F5CD8A095EF3EF0CA
:107D260097EF3EF071EF3EF00DBC9CEF3EF09EEFFC
:107D36003EF0DEEF3EF00F50D8A4A4EF3EF0A6EFE3
:107D46003EF0B0EF3EF0000E016E000E026E000E29
:107D5600036E000E046EFFEF3FF00550012606503D
:107D66000222075003220850042204A0BDEF3EF071
:107D7600BFEF3EF06BEF3FF010A0C4EF3EF0C6EF52
:107D86003EF0CCEF3EF0D89010300109106ECEEFE9
:107D96003EF0D890103201A0D3EF3EF0D5EF3EF082
:107DA600D6EF3EF0108E0434043203320232013232
:107DB6000F2A6BEF3FF00550015C06500258075042
:107DC60003580450800A096E0850800A0958D8B032
:107DD600EFEF3EF0F1EF3EF01CEF3FF00150055C97
:107DE600096E025006580A6E035007580B6E04506F
:107DF60008580C6EFF0E0924016EFF0E0A20026E53
:107E0600FF0E0B20036EFF0E0C20046E800E0D1A63
:107E1600106C1050D8A412EF3FF014EF3FF024EF8F
:107E26003FF0010E0126000E02220322042224EF57
:107E36003FF00550015E0650025A0750035A08509B
:107E4600045A0150021003100410D8A42DEF3FF07D
:107E56002FEF3FF064EF3FF01050D8A435EF3FF01E
:107E660037EF3FF064EF3FF0000E016E000E026E3A
:107E7600000E036E000E046EFFEF3FF0D890013641
:107E860002360336043610AE4BEF3FF04DEF3FF0AF
:107E96004EEF3FF0018010A053EF3FF055EF3FF05B
:107EA60059EF3FF0D88010365BEF3FF0D890103690
:107EB6000F50D8B461EF3FF063EF3FF064EF3FF04F
:107EC6000F0603AE69EF3FF06BEF3FF041EF3FF077
:107ED600000E0E6E10AE72EF3FF074EF3FF08CEFB7
:107EE6003FF010C009F07F0E0916D8B47DEF3FF0C1
:107EF6007FEF3FF083EF3FF0010E0E6E8CEF3FF009
:107F060001A088EF3FF08AEF3FF08CEF3FF07FEF64
:107F16003FF00E50D8B492EF3FF094EF3FF0BFEF32
:107F26003FF0010E0126000E02220322042204A0C5
:107F36009FEF3FF0A1EF3FF0BFEF3FF001C009F028
:107F460002C00AF003C00BF004C00CF00C340C3273
:107F56000B320A32093209C001F00AC002F00BC026
:107F660003F00CC004F00F28D8B4BCEF3FF0BEEF0E
:107F76003FF0BFEF3FF00F2A0F28D8B4C5EF3FF010
:107F8600C7EF3FF0CFEF3FF00F50D8A4CDEF3FF053
:107F9600CFEF3FF0E1EF3FF0000E016E000E026EF4
:107FA600000E036E000E046E0F50D8A4DDEF3FF0F6
:107FB600DFEF3FF0E1EF3FF0000E0D6E0FA0E6EFB2
:107FC6003FF0E8EF3FF0EBEF3FF0038EECEF3FF0D2
:107FD600039ED8900F30046E0DAEF4EF3FF0F6EF2F
:107FE6003FF0F7EF3FF0048E01C001F002C002F04F
:0A7FF60003C003F004C004F0120001
:020000040020DA
:08000000FFFFFFFFFFFFFFFF00
:020000040030CA
:0E000000240C1F1FFF8385FF0FC00FE00F4071
:00000001FF
