:0400000035EF36F0B2
:106C4E0000000040F401D58ED58CD59AD598D596F6
:106C5E00D550F80B0609D56EF28A12004E0EF66E5E
:106C6E006C0EF76E000EF86E00EE4BF010EE06F0A6
:106C7E000900F5CFEEFFE550E150FAE100EE3DF0F0
:106C8E000E0EEE6AE806FDE100014EEF36F00F0E35
:106C9E00C16E100E926E93682AEC36F081A05AEFF8
:106CAE0036F05CEF36F067EF36F081B061EF36F01C
:106CBE0063EF36F05CEF36F089EC3DF055EF36F0D1
:106CCE00809055EF36F000EF00F0000E2C1A000EFB
:106CDE002D1A000E2E1A800E2F1A28C001F029C070
:106CEE0002F02AC003F02BC004F02CC005F02DC01A
:106CFE0006F02EC007F02FC008F029EC3BF001C0C3
:106D0E0028F002C029F003C02AF004C02BF01200B4
:106D1E002A342B34316E3150D8A498EF36F09AEFD6
:106D2E0036F0A4EF36F0000E286E000E296E000E1F
:106D3E002A6E000E2B6E11EF37F028C02CF029C0F2
:106D4E002DF02AC02EF02BC02FF0200EB4EF36F00F
:106D5E00D8902F322E322D322C32E82EAFEF36F065
:106D6E002C50306E2A8EFF0E2816FF0E2916FF0E9F
:106D7E002A16000E2B16960E315E31BECBEF36F074
:106D8E00C9EF36F0E1EF36F03150800A970FD8B0E8
:106D9E00D3EF36F0D5EF36F0D7EF36F09AEF36F078
:106DAE00D8902B322A3229322832313ED7EF36F0A4
:106DBE00F9EF36F01F0E3164E7EF36F0E9EF36F0FB
:106DCE00F1EF36F09AEF36F0D890283629362A367B
:106DDE002B3631063150D8A4F7EF36F0F9EF36F0F6
:106DEE00EBEF36F03050D8B4FFEF36F001EF37F05E
:106DFE0009EF37F02B1E2A1E291E286C000E2922A1
:106E0E002A222B2228C028F029C029F02AC02AF0D5
:106E1E002BC02BF0120034C013F035C014F036C066
:106E2E0015F037C016F032C001F033C002F0000E7C
:106E3E0002BEFF0E036E046E010E82EC38F001C02E
:106E4E000FF002C010F003C011F004C012F05CECA1
:106E5E0039F00FC028F010C029F011C02AF012C06E
:106E6E002BF08FEC36F028C032F029C033F0000E34
:106E7E00136E000E146E000E156E400E166E34C09C
:106E8E000FF035C010F036C011F037C012F05CECC8
:106E9E0039F00FC039F010C03AF011C03BF012C0FB
:106EAE003CF0000E286E000E296E7F0E2A6E430EE9
:106EBE002B6E170E136EB70E146ED10E156E3C0E92
:106ECE00166E39C00FF03AC010F03BC011F03CC046
:106EDE0012F05CEC39F00FC02CF010C02DF011C088
:106EEE002EF012C02FF06CEC36F028C034F029C012
:106EFE0035F02AC036F02BC037F0000E486E000E6B
:106F0E00476EBAEF37F0809034C028F035C029F0C4
:106F1E0036C02AF037C02BF08FEC36F028C0D6FFE3
:106F2E0029C0D7FFF2A49EEF37F0A0EF37F099EF0C
:106F3E0037F0F294809034C028F035C029F036C076
:106F4E002AF037C02BF08FEC36F028C0D6FF29C0C0
:106F5E00D7FFF2A4B5EF37F0B7EF37F0B0EF37F059
:106F6E00F294474A482A3250475C4850800A386E9D
:106F7E003350800A3858D8A0C7EF37F0C9EF37F032
:106F8E008AEF37F0120034C013F035C014F036C05B
:106F9E0015F037C016F032C001F033C002F0000E0B
:106FAE0002BEFF0E036E046E010E82EC38F001C0BD
:106FBE000FF002C010F003C011F004C012F05CEC30
:106FCE0039F00FC028F010C029F011C02AF012C0FD
:106FDE002BF08FEC36F028C032F029C033F0000EC3
:106FEE00136E000E146E000E156E400E166E34C02B
:106FFE000FF035C010F036C011F037C012F05CEC57
:10700E0039F00FC039F010C03AF011C03BF012C089
:10701E003CF0000E286E000E296E7F0E2A6E430E77
:10702E002B6E170E136EB70E146ED10E156E3C0E20
:10703E00166E39C00FF03AC010F03BC011F03CC0D4
:10704E0012F05CEC39F00FC02CF010C02DF011C016
:10705E002EF012C02FF06CEC36F028C034F029C0A0
:10706E0035F02AC036F02BC037F0000E486E000EF9
:10707E00476E72EF38F0808034C028F035C029F0AA
:10708E0036C02AF037C02BF08FEC36F028C0D6FF72
:10709E0029C0D7FFF2A456EF38F058EF38F051EF71
:1070AE0038F0F294809034C028F035C029F036C004
:1070BE002AF037C02BF08FEC36F028C0D6FF29C04F
:1070CE00D7FFF2A46DEF38F06FEF38F068EF38F0BD
:1070DE00F294474A482A3250475C4850800A386E2C
:1070EE003350800A3858D8A07FEF38F081EF38F04F
:1070FE0042EF38F01200096E0950D8B489EF38F01B
:10710E008BEF38F0ADEF38F004BE92EF38F090EF21
:10711E0038F0ADEF38F001C005F002C006F003C044
:10712E0007F004C008F0051E061E071E081E052ADD
:10713E00000E06220722082205C00BF006C00CF036
:10714E0007C00DF008C00EF0B5EF38F001C00BF01F
:10715E0002C00CF003C00DF004C00EF0015002107E
:10716E0003100410D8A4BEEF38F0C0EF38F0CAEF09
:10717E0038F0000E016E000E026E000E036E000E51
:10718E00046E5BEF39F0960E0A6ED4EF38F00A2AD1
:10719E00D8900E320D320C320B32000E0B14056EDF
:1071AE00000E0C14066E000E0D14076EFE0E0E145D
:1071BE00086E0550061007100810D8A4E9EF38F035
:1071CE00EBEF38F0CEEF38F0F9EF38F00A2A010E77
:1071DE000B26000E0C220D220E22D8900E320D32EE
:1071EE000C320B32000E0B14056E000E0C14066ED4
:1071FE00000E0D14076EFF0E0E14086E05500610CD
:10720E0007100810D8A40EEF39F010EF39F0EDEF9B
:10721E0038F018EF39F00A06D8900B360C360D36CA
:10722E000E360DBE1DEF39F01FEF39F027EF39F096
:10723E00020E0A6025EF39F027EF39F012EF39F020
:10724E000AB02CEF39F02EEF39F02FEF39F00D9EFA
:10725E00D8900A320AC005F0066A076A086A05C0A5
:10726E0008F0076A066A056A05500B1206500C12E2
:10727E0007500D1208500E120950D8B449EF39F0CC
:10728E004BEF39F053EF39F004BE52EF39F050EFB7
:10729E0039F053EF39F00E8E0BC001F00CC002F036
:1072AE000DC003F00EC004F012001250800B1F6EC2
:1072BE0012501224266E11AE67EF39F069EF39F0D5
:1072CE006AEF39F026802650D8B470EF39F072EF9D
:1072DE0039F087EF39F02628D8A478EF39F07AEF15
:1072EE0039F082EF39F0000E0F6E000E106E000EA8
:1072FE00116E000E126E118E000E126E8FEF39F09F
:10730E00000E0F6E000E106E000E116E000E126E3D
:10731E001650800B1F1A16501624276E15AE9AEFB4
:10732E0039F09CEF39F09DEF39F027802750D8B413
:10733E00A3EF39F0A5EF39F0BAEF39F02728D8A42A
:10734E00ABEF39F0ADEF39F0B5EF39F0000E136E4B
:10735E00000E146E000E156E000E166E158E000EBB
:10736E00166EC2EF39F0000E136E000E146E000E84
:10737E00156E000E166E1350141015101610D8A49C
:10738E00CBEF39F0CDEF39F0E5EF39F0000E0F6E9F
:10739E00000E106E000E116E000E126E800E111287
:1073AE007F0E12121F5012120FC00FF010C010F0ED
:1073BE0011C011F012C012F028EF3BF02650D8A4E5
:1073CE00EBEF39F0EDEF39F0F7EF39F0000E0F6E0D
:1073DE00000E106E000E116E000E126E28EF3BF0B6
:1073EE00275026C017F0186A175E000E185A7F0E27
:1073FE001724206E000E1820216E0FC01BF010C037
:10740E001CF011C01DF012C01EF0000E0F6E000E0B
:10741E00106E000E116E000E126E000E226E000E19
:10742E00236E000E246E000E256E000E276E58EF92
:10743E003AF02750D8B426EF3AF028EF3AF03FEF63
:10744E003AF0D8901B361C361D361E36D8900F36A5
:10745E0010361136123625AE37EF3AF039EF3AF0D4
:10746E003AEF3AF00F80D89022362336243625365E
:10747E0013501B5C14501C5815501D5816501E5896
:10748E00D8A04CEF3AF04EEF3AF057EF3AF0258C89
:10749E0013501B5E14501C5A15501D5A16501E5A6E
:1074AE00272A190E27645EEF3AF060EF3AF020EFCC
:1074BE003AF01B501C101D101E10D8B469EF3AF094
:1074CE006BEF3AF083EF3AF0228083EF3AF0D890E8
:1074DE000F3610361136123625AE78EF3AF07AEFB7
:1074EE003AF07BEF3AF00F80D890223623362436CE
:1074FE0025362006D8A0210611AE88EF3AF08AEF85
:10750E003AF06EEF3AF0000E276E25AE91EF3AF09C
:10751E0093EF3AF0B7EF3AF0FF0E2214176EFF0E0C
:10752E002314186EFF0E2414196E7F0E25141A6E76
:10753E001750181019101A10D8B4A8EF3AF0AAEF75
:10754E003AF0AEEF3AF0010E276EB7EF3AF00FA019
:10755E00B3EF3AF0B5EF3AF0B7EF3AF0AAEF3AF0F0
:10756E002750D8B4BDEF3AF0BFEF3AF0E3EF3AF060
:10757E00010E0F26000E10221122122212A0CAEFA7
:10758E003AF0CCEF3AF0E3EF3AF00FC017F010C03C
:10759E0018F011C019F012C01AF01A341A3219323A
:1075AE001832173217C00FF018C010F019C011F0B2
:1075BE001AC012F0204A212A21BEEEEF3AF02150D5
:1075CE0008E12028D8A0EEEF3AF0F0EF3AF0FBEF0A
:1075DE003AF0000E216E2068000E0F6E000E106E37
:1075EE00000E116E000E126E21BE08EF3BF0215000
:1075FE0006E12004D8B006EF3BF008EF3BF016EFA3
:10760E003BF0000E216E000E206E000E0F6E000E6F
:10761E00106E000E116E000E126E000E1F6E20C048
:10762E0026F026A01DEF3BF01FEF3BF022EF3BF0C4
:10763E00118E23EF3BF0119ED8902630126ED9EFAB
:10764E0039F012000450800B0D6E045004240F6E9E
:10765E0003AE34EF3BF036EF3BF037EF3BF00F80ED
:10766E000F50D8B43DEF3BF03FEF3BF054EF3BF003
:10767E000F28D8A445EF3BF047EF3BF04FEF3BF020
:10768E00000E016E000E026E000E036E000E046EF2
:10769E00038E000E046E5CEF3BF0000E016E000ECA
:1076AE00026E000E036E000E046E0850800B0E6EFE
:1076BE000D500E18D8B466EF3BF068EF3BF069EF53
:1076CE003BF00D8C085008240E6E07AE71EF3BF0A8
:1076DE0073EF3BF074EF3BF00E800E50D8B47AEFA0
:1076EE003BF07CEF3BF091EF3BF00E28D8A482EFFD
:1076FE003BF084EF3BF08CEF3BF0000E056E000E7E
:10770E00066E000E076E000E086E078E000E086ED7
:10771E0099EF3BF0000E056E000E066E000E076E22
:10772E00000E086E0F500E5CD8B0A0EF3BF0A2EF2B
:10773E003BF0C9EF3BF00DACA7EF3BF0A9EF3BF0F0
:10774E00ABEF3BF0800E0D1A0FC010F00EC00FF015
:10775E0010C00EF001C010F005C001F010C005F011
:10776E0002C010F006C002F010C006F003C010F008
:10777E0007C003F010C007F004C010F008C004F0FA
:10778E0010C008F0000E106E0F500EC009F00A6AFD
:10779E00095E000E0A5A0ABEDEEF3BF00A5009E1FE
:1077AE001A0E095CD8A0DEEF3BF0E0EF3BF017EFCE
:1077BE003CF00150021003100410D8A4E9EF3BF086
:1077CE00ECEF3BF0010EEDEF3BF0000E106E000EF5
:1077DE00016E000E026E000E036E000E046E0EC0E1
:1077EE000FF020EF3CF010A0FFEF3BF001EF3CF06C
:1077FE0007EF3CF0D89010300109106E09EF3CF005
:10780E00D890103201A00EEF3CF010EF3CF011EFCB
:10781E003CF0108E043404320332023201320F2A4D
:10782E000E500F5CD8A01EEF3CF020EF3CF0FAEFAC
:10783E003BF00DBC25EF3CF027EF3CF067EF3CF042
:10784E000F50D8A42DEF3CF02FEF3CF039EF3CF069
:10785E00000E016E000E026E000E036E000E046E20
:10786E0088EF3DF0055001260650022207500322F4
:10787E000850042204A046EF3CF048EF3CF0F4EF31
:10788E003CF010A04DEF3CF04FEF3CF055EF3CF0CC
:10789E00D89010300109106E57EF3CF0D89010328E
:1078AE0001A05CEF3CF05EEF3CF05FEF3CF0108E21
:1078BE00043404320332023201320F2AF4EF3CF068
:1078CE000550015C06500258075003580450800AB8
:1078DE00096E0850800A0958D8B078EF3CF07AEF5C
:1078EE003CF0A5EF3CF00150055C096E02500658C5
:1078FE000A6E035007580B6E045008580C6EFF0E9C
:10790E000924016EFF0E0A20026EFF0E0B20036E7D
:10791E00FF0E0C20046E800E0D1A106C1050D8A4A1
:10792E009BEF3CF09DEF3CF0ADEF3CF0010E0126DD
:10793E00000E022203220422ADEF3CF00550015E40
:10794E000650025A0750035A0850045A01500210AA
:10795E0003100410D8A4B6EF3CF0B8EF3CF0EDEFF6
:10796E003CF01050D8A4BEEF3CF0C0EF3CF0EDEF71
:10797E003CF0000E016E000E026E000E036E000E45
:10798E00046E88EF3DF0D890013602360336043689
:10799E0010AED4EF3CF0D6EF3CF0D7EF3CF00180C8
:1079AE0010A0DCEF3CF0DEEF3CF0E2EF3CF0D880D4
:1079BE001036E4EF3CF0D89010360F50D8B4EAEF02
:1079CE003CF0ECEF3CF0EDEF3CF00F0603AEF2EFC7
:1079DE003CF0F4EF3CF0CAEF3CF0000E0E6E10AE31
:1079EE00FBEF3CF0FDEF3CF015EF3DF010C009F061
:1079FE007F0E0916D8B406EF3DF008EF3DF00CEF00
:107A0E003DF0010E0E6E15EF3DF001A011EF3DF0B1
:107A1E0013EF3DF015EF3DF008EF3DF00E50D8B4EA
:107A2E001BEF3DF01DEF3DF048EF3DF0010E01263E
:107A3E00000E02220322042204A028EF3DF02AEFBA
:107A4E003DF048EF3DF001C009F002C00AF003C05E
:107A5E000BF004C00CF00C340C320B320A3209322B
:107A6E0009C001F00AC002F00BC003F00CC004F014
:107A7E000F28D8B445EF3DF047EF3DF048EF3DF00D
:107A8E000F2A0F28D8B44EEF3DF050EF3DF058EFCF
:107A9E003DF00F50D8A456EF3DF058EF3DF06AEF91
:107AAE003DF0000E016E000E026E000E036E000E13
:107ABE00046E0F50D8A466EF3DF068EF3DF06AEF0C
:107ACE003DF0000E0D6E0FA06FEF3DF071EF3DF02B
:107ADE0074EF3DF0038E75EF3DF0039ED8900F309E
:107AEE00046E0DAE7DEF3DF07FEF3DF080EF3DF08B
:107AFE00048E01C001F002C002F003C003F004C006
:107B0E0004F01200010E336EF40E326E0E0E346E51
:107B1E002D0E356E420E366E400E376ECAEC37F0B5
:107B2E00010E336EF40E326E0E0E346E2D0E356E59
:107B3E00420E366E400E376ECAEC37F0010E336EC3
:107B4E00F40E326E0E0E346E2D0E356E420E366EF5
:107B5E00400E376ECAEC37F0010E336E770E326E72
:107B6E00E10E346E7A0E356E740E366E400E376E32
:107B7E00CAEC37F0000E336E7D0E326E960E346EFA
:107B8E00430E356E230E366E400E376ECAEC37F04E
:107B9E00010E336EF40E326E0E0E346E2D0E356EE9
:107BAE00420E366E400E376ECAEC37F0010E336E53
:107BBE00770E326EE10E346E7A0E356E740E366EB0
:107BCE00400E376ECAEC37F0000E336E7D0E326EFD
:107BDE00960E346E430E356E230E366E400E376E95
:107BEE00CAEC37F0030E336EE80E326E0E0E346EA4
:107BFE002D0E356E420E366E400E376ECAEC37F0D5
:107C0E00010E336EF40E326EC10E346ECA0E356E28
:107C1E00010E366E400E376ECAEC37F0010E336E23
:107C2E00F40E326EC10E346ECA0E356E010E366E05
:107C3E00400E376ECAEC37F0010E336EF40E326E14
:107C4E00C10E346ECA0E356E010E366E400E376E94
:107C5E00CAEC37F0010E336E770E326EA60E346E0E
:107C6E009B0E356EF40E366E3F0E376ECAEC37F045
:107C7E00000E336E7D0E326E960E346E430E356EE2
:107C8E00230E366E400E376ECAEC37F0010E336E91
:107C9E00F40E326E3D0E346E0A0E356E670E366E73
:107CAE00400E376ECAEC37F0010E336E770E326E21
:107CBE00E10E346E7A0E356E740E366E400E376EE1
:107CCE00CAEC37F0000E336E7D0E326E960E346EA9
:107CDE00430E356E230E366E400E376ECAEC37F0FD
:107CEE00030E336EE80E326E0E0E346E2D0E356EA2
:107CFE00420E366E400E376ECAEC37F0010E336E02
:107D0E00F40E326E0E0E346E2D0E356EC20E366EB3
:107D1E003F0E376ECAEC37F0010E336E770E326EB1
:107D2E000E0E346E2D0E356E420E366E400E376EC2
:107D3E00CAEC37F0000E336E7D0E326E0E0E346EC0
:107D4E002D0E356E420E366E400E376ECAEC37F083
:107D5E00010E336EF40E326E0E0E346E2D0E356E27
:107D6E00C20E366E3F0E376ECAEC37F0010E336E12
:107D7E00770E326E2D0E346EB20E356ECD0E366E11
:107D8E003F0E376ECAEC37F0000E336E7D0E326E3C
:107D9E00E70E346EFB0E356ED90E366E3F0E376E15
:107DAE00CAEC37F0000E336E7D0E326E790E346EE5
:107DBE00E90E356EE60E366E3F0E376ECAEC37F0B4
:107DCE00000E336E7D0E326EA60E346E9B0E356E29
:107DDE00F40E366E3F0E376ECAEC37F0010E336E70
:107DEE002C0E326E790E346EE90E356EE60E366E50
:107DFE003F0E376ECAEC37F0000E336E640E326EE5
:107E0E00A60E346E9B0E356E740E366E400E376EA9
:107E1E0012EC37F0010E336E2C0E326E640E346E91
:107E2E003B0E356E370E366E400E376ECAEC37F09F
:107E3E00010E336EF40E326EAE0E346E470E356E8C
:107E4E00090E366E400E376ECAEC37F0010E336EE9
:107E5E00770E326ED50E346E780E356E110E366E7E
:107E6E00400E376ECAEC37F0000E336E7D0E326E5A
:107E7E00AC0E346E1C0E356E1A0E366E400E376E0C
:107E8E00CAEC37F0000E336E7D0E326E960E346EE7
:107E9E00430E356E230E366E400E376ECAEC37F03B
:107EAE00000E336E7D0E326EF40E346EFD0E356E98
:107EBE002C0E366E400E376ECAEC37F0010E336E56
:107ECE002C0E326E960E346E430E356E230E366EBB
:107EDE00400E376ECAEC37F0000E336E640E326E03
:107EEE00A60E346E9B0E356E740E366E400E376EC9
:107EFE0012EC37F0010E336E2C0E326EA60E346E6F
:107F0E009B0E356E740E366E400E376ECAEC37F021
:107F1E00010E336EF40E326E790E346EE90E356E3E
:107F2E00660E366E400E376ECAEC37F0010E336EAB
:107F3E00770E326EA60E346E9B0E356E740E366E46
:107F4E00400E376ECAEC37F0000E336E7D0E326E79
:107F5E00960E346E430E356E230E366E400E376E11
:107F6E00CAEC37F0010E336EF40E326E0E0E346E16
:107F7E002D0E356E420E366E400E376ECAEC37F051
:107F8E00010E336E770E326EA60E346E9B0E356E6C
:107F9E00740E366E400E376ECAEC37F0000E336E2E
:107FAE007D0E326E960E346E430E356E230E366E89
:107FBE00400E376ECAEC37F0090E336EC40E326EB9
:107FCE000E0E346E2D0E356E420E366E400E376E20
:107FDE00CAEC37F0030E336EE80E326EA60E346E18
:107FEE009B0E356E740E366E400E376E12EC37F0F9
:027FFE0012006F
:020000040020DA
:08000000FFFFFFFFFFFFFFFF00
:020000040030CA
:0E000000240C1F1FFF8385FF0FC00FE00F4071
:00000001FF
